:100000000C9434000C9451000C9451000C94510049
:100010000C9451000C9451000C9451000C9451001C
:100020000C9451000C9451000C9451000C9451000C
:100030000C9451000C9451000C9451000C945100FC
:100040000C9451000C9451000C9451000C945100EC
:100050000C9451000C9451000C9451000C945100DC
:100060000C9451000C94510011241FBECFEFD8E026
:10007000DEBFCDBF17E0A0E0B1E0EAEEFBE002C0DA
:1000800005900D92A235B107D9F727E0A2E5B7E0B8
:1000900001C01D92A335B207E1F70E9472010C94D2
:1000A000F3050C9400008F929F92AF92BF92CF9273
:1000B000DF92EF92FF920F931F93CF93DF93CDB711
:1000C000DEB725970FB6F894DEBF0FBECDBF8C010B
:1000D00025E030E08AE090E04C01CE0101967C0101
:1000E000F9015901C801B4016F010E94A305F6018D
:1000F0009AE07902802D1124699F212D1124280F67
:10010000322F2227C001822B932B9801281B390BF9
:1001100020633197D701AE0FBF1F2C930A30110512
:1001200060F0E115F1059F018B0109F0DACF80E362
:1001300097E061E270E00E946601E630F105B8F7F1
:10014000C5018630910579F0D701AE0FBF1F8C91A4
:100150009091C00090729030D9F38093C600319690
:10016000E530F10589F725960FB6F894DEBF0FBE8E
:10017000CDBFDF91CF911F910F91FF90EF90DF9056
:10018000CF90BF90AF909F908F9008952F923F9205
:100190004F925F926F927F928F929F92AF92BF9297
:1001A000CF92DF92EF92FF920F931F93CF93DF9343
:1001B000CDB7DEB72A970FB6F894DEBF0FBECDBF1E
:1001C0007C018B012AE030E040E050E06A010E94AF
:1001D000B70560636A8781E00A301105EC04FD040D
:1001E00008F0812D8170FE013196803021F0399622
:1001F000CF0101963EC089E090E08115910509F498
:100200005DC0B8012C01C7012AE030E0190140E0CF
:1002100050E03A014F010E94B70569015A01B60149
:10022000C5019101A3010E94B705F4016063C201F9
:100230000197DF019C01A80FB91F6C9381E0043680
:100240001105E604F70408F0812D817080308601E5
:100250007501C90109F4D1CF8B30910508F02EC08A
:100260008A30910591F09C01CD01821B930B0A9677
:10027000FD0120813091C00030723030D9F32093DD
:10028000C6003196E817F907A1F72A960FB6F89439
:10029000DEBF0FBECDBFDF91CF911F910F91FF90B9
:1002A000EF90DF90CF90BF90AF909F908F907F9016
:1002B0006F905F904F903F902F90089580E397E06C
:1002C00061E270E00E9466010E9468010E9468017C
:1002D0000E9492050E9468018DEC96E06BE270E04E
:1002E0000E9466010E9474012F923F924F925F928A
:1002F0006F927F928F929F92AF92BF92CF92DF9236
:10030000EF92FF920F931F93CF93DF93CDB7DEB79A
:10031000A1970FB6F894DEBF0FBECDBF8FB7F8948C
:1003200090915207903009F0D0C391E0909352071A
:100330008FBF5998519A80E190E09093C5008093C7
:10034000C4001092C00088E18093C10086E08093D1
:10035000C2002D98259A2D985A98529A5C98549AD2
:100360005B98539A5A985B985C983D98459A3C984C
:10037000449A88E98093B8001092B90057985F9A20
:100380002098289A00E010E08FEF90E09C838B8308
:1003900081E090E09E012F5E3F4F3A832983BE01AA
:1003A000685E7F4F54E8988B8F871A8619861C8762
:1003B0000B8758017E876D871F8A1E8B0D8B1C8BC8
:1003C0000B8B1A8B098B87E090E099A388A3898116
:1003D0009A819F8F8E8F1D8E81E090E09C8F8B8FF6
:1003E0008AEA91E09A8F898F81E0888FF801D8019D
:1003F0009D01DB016901A20FB31F9C9190307F0129
:1004000009F42BC0E115F10519F0803009F453C04F
:1004100084EA8093BC008091BC008823E2F780913D
:10042000B9008695869586958A95823008F05BC3DB
:1004300080ED8093BB005093BC008091BC0088236A
:10044000E2F78091B90086958695869588300CF004
:100450002FC0833009F42FC057C3E115F10519F0FF
:10046000813009F44AC084EA8093BC008091BC00CA
:100470008823E2F78091B9008695869586958A95BE
:10048000823008F030C381ED8093BB005093BC00F4
:100490008091BC008823E2F78091B900869586950B
:1004A000869588300CF026C0833009F426C02CC312
:1004B000883009F02CC3FD0123813481A181B281F0
:1004C000F7012A0F3B1FA217B307812D09F448C07B
:1004D0008C918093BB005093BC008091BC0088231A
:1004E000E2F711968091B9008695869586958530BC
:1004F00051F3F4C2883009F00AC3FD01838194816D
:100500008115910509F4E4C2FD01A181B2819D012B
:10051000280F391F01973C01C801F3018E179F076F
:1005200039F45093BC004091BC004423E2F707C06B
:1005300044EC4093BC004091BC004423E2F740915E
:10054000B900407F403509F0CEC20196FD011196F9
:100550004091BB004083A217B307F9F681E0F70191
:100560003196D6011596AA30B10509F041CF84E93C
:100570008093BC008B89282F2074982E8295982F09
:100580009F7032E0203019F0392F36953170732E7C
:10059000203011F08970982F5AE09502F02C112428
:1005A0008989582E829587708502E02C11248A89CA
:1005B000682E82958F708502802C11248D89982F4A
:1005C00092959F709502202D11243E89932F92952C
:1005D0009F70950211243F70300D9F89492F4295DD
:1005E0004F70450211243D3008F07DC28F70280FF6
:1005F000203208F078C29F70802D890F9927805390
:10060000984F432F5527440F551F702F771F652F85
:10061000542F412DE22FFF2798011295107F690179
:10062000022F02951027007F1027F2950F27F07FE9
:100630000F27E295FE27E07FFE271F01062B172BD1
:10064000242A352A60E971E00E94A305DC01A35049
:10065000BE4F8C91282F33272229332916950795D1
:10066000B32FB795A22FA79516950795B795A79580
:1006700016950795B795A795A03493E0B90708F0AC
:1006800036C2A357BC4F9C919030860109F42BC20F
:10069000492F592F550F550B440F551F440F551F08
:1006A000440F551F241B350B207F3F7191E021150E
:1006B00031050007110709F4912D91709030372D05
:1006C00009F428C28770907021E081159105000718
:1006D000110709F4212D2170203009F41FC2892D42
:1006E0008F70F80E8F2D845F313009F08F2D15013A
:1006F000252D2F709E2D920F992E9C3308F0F3C15B
:10070000262D2F70982D920FB92E9C3308F0EBC137
:10071000883108F0E8C1682F7727C80120E13EE062
:10072000A8010E9493057B016C016B2D7727C801FE
:100730002CE330E05901A8010E949305292D3327AD
:10074000260F371F801F911F2E0D3F1D8C1D9D1DD5
:100750006901B9017C019501A8010E94B705390121
:100760002A01B301C20124EC3FEF4FEF5FEF0E947B
:1007700093055B014C01C801DC01A050BF4F2C91D7
:100780003091C00030723030D9F32093C60001960A
:100790008E30910589F7B601C70120E13EE0A8013E
:1007A0000E94B70538872F83B9015E834D83CA0144
:1007B0000E94C600B301C2012CE330E0A8010E94F0
:1007C000B7052091C00020722030D9F32AE320938E
:1007D000C6000E94C6008091C00080728030D9F3AC
:1007E0008AE38093C600C601A80EB91EC701881E01
:1007F000991EB501C4010E94C600C8016D857E85A1
:1008000054E8DC01A25FBE4F2C913091C0003072E1
:100810003030D9F32093C60001968330910589F7D3
:1008200081E02B853C85253031052006310609F015
:10083000812D8170960120563445F701E040F0404B
:100840008030A7EFBFE309F048C081E0203F91EF7F
:1008500039072FEF3FEFE207F30708F0812D817092
:10086000803009F03AC0EF85F889319681E0E115D2
:10087000F10509F0812D8170803009F03DC1CF0173
:10088000F801DF01AF5EBE4F2C913091C000307295
:100890003030D9F32093C6003196E732F10589F75D
:1008A0006AE070E00E94A305988B8F870E94530036
:1008B000C8016D857E8554E8DC01A85CBE4F2C9193
:1008C0003091C00030723030D9F32093C6000196C9
:1008D0008230910589F7A7EFBFE329B191E0822F1C
:1008E000882331E00AF4312D83B18170803041E0FA
:1008F00009F0412D22230AF0912D2985292B217001
:100900002030A1F4F801DF01A65CBE4F9C9120913C
:10091000C00020722030D9F39093C6003196E433A2
:10092000F10589F7188B0F87A7EFBFE391E08030BF
:1009300009F4912D8A85892B8170803019F0A42EBD
:10094000B32E3CC0EF85F889319681E0E115F105C1
:1009500009F0812D8170803009F0CEC0B32ECF0117
:10096000F801DF01A259BE4F2C913091C0003072C6
:100970003030D9F32093C6003196E732F10589F77C
:10098000A42E6AE070E00E94A305988B8F870E94D6
:100990005300C8016D857E8554E8DC01A85CBE4F1C
:1009A0002C913091C00030723030D9F32093C600C2
:1009B00001968230910589F7A7EFBFE38F8598896B
:1009C0002B813C818217930709F45FC0C801DC01C9
:1009D000AB56BE4F2C913091C00030723030D9F3FD
:1009E0002093C60001968531910589F78F859889F6
:1009F0000E945300C801DC01A85CBE4F2C913091CD
:100A0000C00030723030D9F32093C6000196823096
:100A1000910589F75C988F8598898A30910508F04F
:100A20006FC05B98DC01A45EB84F8C9128E030E089
:100A3000A801A7EFBFE32150304040405040982F1D
:100A4000622F6A9512F09695FCCF917091959470F3
:100A50006BB16B7F692B6BB95B9AE3E2F0E0319786
:100A6000F1F791E0211531054007510709F4912D67
:100A700091705B98903009F0DECF5C9A8F859889F1
:100A80009C838B836D857E8554E8C8019801FD01A8
:100A90003197F1F741E08B3091052007310708F0DD
:100AA000412D41708F5F9F4F2F4F3F4F403079F75F
:100AB0008BE39DE00197F1F7AA86B9868F8198852F
:100AC0009C878B87AD80BE8077CC8FBF0E946C01E6
:100AD00080E397E061E270E00E946601863019F4DD
:100AE00084E98093BC00CE0148960E946A0160E4CC
:100AF00073E0CD010E94640180E097E06CE1EBCFF0
:100B00006AE070E00E946401843051F3ECCF8930D8
:100B100039F3E9CF8BEA91E06CE2DDCF87ED91E02C
:100B200066E2D9CFFFCFDB018F939F930E94D90557
:100B3000BF91AF91A29F800D911DA39F900DB29F79
:100B4000900D11240895AA1BBB1B51E107C0AA1FD9
:100B5000BB1FA617B70710F0A61BB70B881F991F5E
:100B60005A95A9F780959095BC01CD010895A1E211
:100B70001A2EAA1BBB1BFD010DC0AA1FBB1FEE1F17
:100B8000FF1FA217B307E407F50720F0A21BB30B62
:100B9000E40BF50B661F771F881F991F1A9469F7DE
:100BA00060957095809590959B01AC01BD01CF013A
:100BB00008950E94E405A59F900DB49F900DA49FF9
:100BC000800D911D11240895A29FB001B39FC00113
:100BD000A39F700D811D1124911DB29F700D811D69
:0A0BE0001124911D0895F894FFCF31
:100BEA0063757272656E742074696D653A20200DA2
:100BFA000A496E6372656D656E7465642064617915
:100C0A00735F776974686F75745F696E676573740B
:100C1A00696E6720746F3A200D0A646179735F7791
:100C2A006974686F75745F696E67657374696E67F6
:100C3A0020726573657420746F2030206279206297
:100C4A007574746F6E2070726573732E0D0A646109
:100C5A0079735F776974686F75745F696E676573B6
:100C6A0074696E6720696E6372656D656E7465641A
:100C7A0020746F3A205570646174696E67206469E4
:100C8A0073706C617920746F3A20006173736572B6
:100C9A0074696F6E206661696C65643A20282879E8
:100CAA006F662026204F4C5F4D41534B29203E3E14
:100CBA00203329203E2031617373657274696F6E27
:100CCA00206661696C65643A2028796F662026205F
:100CDA0030623131312920213D20303030040E0F6D
:100CEA0009020C0D0E070A0B0C050F090A030D0E5B
:100CFA000F010B0C0D06090A0B040E0F09020C0D4D
:100D0A000E070A0B0C050F090A030D0E0F010B0C37
:100D1A000D06090A0B040E0F09020C0D0E070A0B29
:100D2A000C050F090A030D0E0F010B0C0D06090A1B
:100D3A000B040E0F09020C0D0E070A0B0C050F0906
:100D4A000A0B0C0D0E070A0B0C050F090A030D0EF0
:100D5A000F010B0C0D06090A0B040E0F09020C0DEC
:100D6A000E070A0B0C050F090A030D0E0F010B0CD7
:100D7A000D06090A0B040E0F09020C0D0E070A0BC9
:100D8A000C050F090A030D0E0F010B0C0D06090ABB
:100D9A000B040E0F09020C0D0E070A0B0C050F09A6
:100DAA000A030D0E0F090A0B0C050F090A030D0E93
:100DBA000F010B0C0D06090A0B040E0F09020C0D8C
:100DCA000E070A0B0C050F090A030D0E0F010B0C77
:100DDA000D06090A0B040E0F09020C0D0E070A0B69
:100DEA000C050F090A030D0E0F010B0C0D06090A5B
:100DFA000B040E0F09020C0D0E070A0B0C050F0946
:100E0A000A030D0E0F010B0C0D0E0F090A030D0E2E
:100E1A000F010B0C0D06090A0B040E0F09020C0D2B
:100E2A000E070A0B0C050F090A030D0E0F010B0C16
:100E3A000D06090A0B040E0F09020C0D0E070A0B08
:100E4A000C050F090A030D0E0F010B0C0D06090AFA
:100E5A000B040E0F09020C0D0E070A0B0C050F09E5
:100E6A000A030D0E0F010B0C0D06090A0B000000F8
:100E7A000000000000000000000000000000000068
:100E8A000000000000000000000000000000000058
:100E9A000000000000000000000000000000000048
:100EAA0000000000000000000000000000000040F8
:100EBA004040404040404040404040404040404028
:100ECA004040404040404040404040404040404018
:100EDA004040404040404040404040404040404008
:100EEA004040404040404040404040404000004276
:100EFA0042424242424242424242424242424242C8
:100F0A0042424242424242424242424242424242B7
:100F1A0042424242424242424242424242424242A7
:100F2A00424242424242424200000000000000485F
:100F3A004A484A484A484A484A484A484A484A4817
:100F4A004A484A484A484A484A484A484A484A4807
:100F5A004A484A484A484A484A484A484A484A48F7
:100F6A004A484A484A484A484A484A484A00004A77
:100F7A004C4A4C4A4C4A4C4A4C4A4C4A4C4A4C4AB7
:100F8A004C4A4C4A4C4A4C4A4C4A4C4A4C4A4C4AA7
:100F9A004C4A4C4A4C4A4C4A4C4A4C4A4C4A4C4A97
:100FAA004C4A4C4A4C4A4C4A4C4A4C000000004EAF
:100FBA00504E504E504E504E504E504E504E504E37
:100FCA00504E504E504E504E504E504E504E504E27
:100FDA00504E504E504E504E504E504E504E504E17
:100FEA00504E504E504E504E504E504E50000050A3
:100FFA0052505250525052505250525052505250D7
:10100A0052505250525052505250525052505250C6
:10101A0052505250525052505250525052505250B6
:10102A0052505250525052505250520000000054E6
:10103A005654565456545654565456545654565456
:10104A005654565456545654565456545654565446
:10105A005654565456545654565456545654565436
:10106A0056545654565456545654565456000056CE
:10107A0058565856585658565856585658565856F6
:10108A0058565856585658565856585658565856E6
:10109A0058565856585658565856585658565856D6
:1010AA005856585658565856585658565800005872
:1010BA005A585A585A585A585A585A585A585A5896
:1010CA005A585A585A585A585A585A585A585A5886
:1010DA005A585A585A585A585A585A585A585A5876
:1010EA005A585A585A585A585A585A000000005CC6
:1010FA005E5C5E5C5E5C5E5C5E5C5E5C5E5C5E5C16
:10110A005E5C5E5C5E5C5E5C5E5C5E5C5E5C5E5C05
:10111A005E5C5E5C5E5C5E5C5E5C5E5C5E5C5E5CF5
:10112A005E5C5E5C5E5C5E5C5E5C5E5C5E00005E9D
:10113A00605E605E605E605E605E605E605E605EB5
:10114A00605E605E605E605E605E605E605E605EA5
:10115A00605E605E605E605E605E605E605E605E95
:10116A00605E605E605E605E605E600000000062FD
:10117A006462646264626462646264626462646235
:10118A006462646264626462646264626462646225
:10119A006462646264626462646264626462646215
:1011AA006462646264626462646264626463616CFD
:1011BA006C656420604F7074696F6E3A3A756E7729
:1011CA00726170282960206F6E206120604E6F6EF8
:1011DA0065602076616C7565000000000000000003
:1011EA00617474656D707420746F20616464207713
:1011FA00697468206F766572666C6F7700065B4F5C
:10120A00666D7D077F6F000000000000000000008F
:10121A00617474656D707420746F20737562747272
:10122A006163742077697468206F766572666C6F83
:02123A0077003B
:00000001FF
